S00F000030375F756172742E7372656393
S11300000C9434000C9451000C9451000C94510045
S11300100C9451000C9451000C9451000C94510018
S11300200C9451000C9451000C9451000C94510008
S11300300C9451000C944A010C9451000C945100FE
S11300400C9451000C9451000C9431020C945F02F6
S11300500C9451000C945F010C9451000C945100C9
S11300600C9451000C94510011241FBECFEFD8E022
S1130070DEBFCDBF11E0A0E0B1E0EAEFF5E002C0E1
S113008005900D92A036B107D9F721E0A0E6B1E0C2
S113009001C01D92A53AB207E1F70E94F6000C9444
S11300A0FB020C940000299A85E08A95F1F7000080
S11300B029980895CF93C82F662311F0289A01C078
S11300C02898549A559A569A579A5F985E985D98CC
S11300D05C98CC230CF45F9AC6FD5E9AC5FD5D9ACC
S11300E0C4FD5C9A0E9453005F985E985D985C988A
S11300F0C3FD5F9AC2FD5E9AC1FD5D9AC0FD5C9A24
S11301000E9453005C9A5D9A5E9A5F9A87EB9BE02B
S11301100197F1F700C00000CF91089560E00E94BC
S11301205A000895611104C080580E948E000895F9
S113013080540E948E00089581E00E948E000895EC
S113014061E00E945A000895CF93DF93EC01219659
S1130150FC018081882329F00E94A00089918111EB
S1130160FBCFDF91CF910895CF93C82F209A559A52
S1130170219A549A559A569A579A8FEF99EF019764
S1130180F1F700C000005D9A5C9A0E9453008FE171
S11301909EE40197F1F700C000000E9453008FEF26
S11301A090E00197F1F700C000000E9453008FEF28
S11301B090E00197F1F700C000005C980E945300A2
S11301C08FEF90E00197F1F700C0000088E20E94F1
S11301D08E0088E00E948E000E949C0086E00E94AF
S11301E08E008C2F0E948E00CF9108958CE00E9487
S11301F0B40060E081E00E94920089E091E00E94F6
S1130200A40061E083E00E94920080E191E00E94FA
S1130210A40060E088E00E94920085E191E00E94E1
S1130220A40060E08DE00E94920087E191E00E94CA
S1130230A40061E088E00E94920089E191E00E94BC
S1130240A400ECE7F0E080818064808380818F7774
S113025080838081807F8083EAE7F0E0808180680A
S11302608083808188608083808187608083E1E8E7
S1130270F0E080818B7F8083808183608083EFE6E0
S1130280F0E080818160808387E690E00E948902AB
S11302907894FFCF1F920F920FB60F9211248F9371
S11302A0EF93FF93EAE7F0E0808180648083FF911D
S11302B0EF918F910F900FBE0F901F9018951F9282
S11302C00F920FB60F9211240F931F932F933F9306
S11302D04F935F936F937F938F939F93AF93BF934A
S11302E0EF93FF93CF93DF93CDB7DEB72897DEBFAD
S11302F0CDBF009178001091790088E0E0E0F1E052
S1130300DE01119601900D928A95E1F760E088E094
S11303100E949200CE0101960E94A4004AE0BE0110
S11303206F5F7F4FC8010E94C60260E088E00E94B0
S11303309200CE0101960E94A4000C3B22E0120719
S113034060F48BE191E00E94B702CE0101960E9415
S1130350B70282E391E00E94B70261E08FE00E945D
S1130360920000FD05C085E391E00E94A40004C052
S113037087E391E00E94A40040E1BE016F5F7F4FDC
S1130380C8010E94C60260E08DE00E949200CE0186
S113039001960E94A40040E1BE016F5F7F4FC80137
S11303A00E94C60261E088E00E94920089E391E025
S11303B00E94A40061E088E00E949200093F83E06B
S11303C0180728F080E491E00E94A4002FC0C8011F
S11303D086529240833D914028F485E491E00E9446
S11303E0A40024C0C8018E559140883C910528F48E
S11303F08CE491E00E94A40019C0C80186599109B7
S1130400883C910528F481E591E00E94A4000EC087
S1130410035311090336110528F486E591E00E947F
S1130420A40004C089E591E00E94A40028960FB6B8
S1130430F894DEBF0FBECDBFDF91CF91FF91EF9156
S1130440BF91AF919F918F917F916F915F914F91E8
S11304503F912F911F910F910F900FBE0F901F90FE
S113046018951F920F920FB60F9211242F938F930A
S11304709F93EF93FF938091C0002091C6008C71ED
S1130480E0916201EF5FEF7190916101E91739F03A
S1130490E0936201F0E0EB59FE4F208301C082E05B
S11304A090916001892B80936001FF91EF919F915E
S11304B08F912F910F900FBE0F901F9018951F9240
S11304C00F920FB60F9211248F939F93EF93FF9384
S11304D09091640180916301981769F0E091630140
S11304E0EF5FEF71E0936301F0E0EB57FE4F808123
S11304F08093C60005C0E1ECF0E080818F7D8083AD
S1130500FF91EF919F918F910F900FBE0F901F90CD
S11305101895109264011092630110926201109276
S1130520610199231CF422E02093C00090789093F9
S1130530C5008093C40088E98093C10086E080935D
S1130540C2000895209164012F5F2F71909163017F
S11305502917E1F3E22FF0E0EB57FE4F808320935D
S11305606401E1ECF0E08081806280830895CF93A0
S1130570DF93EC018881882331F021960E94A20246
S113058089918111FBCFDF91CF910895BB274A3028
S113059031F4992322F4BDE2909581959F4F0C94F8
S11305A0D202BB27FB015527AA27880F991FAA1F30
S11305B0A41710F0A41B83955051B9F7A05DAA337A
S11305C008F0A95DA193009779F7B111B193119245
S11305D0CB010C94EB02DC01FC01672F71917723B2
S11305E0E1F7329704C07C916D9370836291AE17EA
S10D05F0BF07C8F30895F894FFCF85
S11305FA20202020202020200076616C75653A0096
S113060A6B65793A006100620063004144432076D5
S113061A616C756520696E20646563696D616C3A05
S113062A20000D0A00310030002020202020200064
S113063A4E6F6E650053656C656374004C65667431
S113064A00446F776E005570005269676874000041
S9030000FC
