:100000000C9434000C9451000C9451000C94510049
:100010000C9451000C9451000C9451000C9451001C
:100020000C9451000C947D010C9451000C945100DF
:100030000C9451000C9451000C9451000C945100FC
:100040000C9434010C9451000C9451000C94510008
:100050000C9451000C9451000C9451000C945100DC
:100060000C9451000C94510011241FBECFEFD8E026
:10007000DEBFCDBF11E0A0E0B1E0E6E0F5E002C0F8
:1000800005900D92A634B107D9F721E0A6E4B1E0BE
:1000900001C01D92AC34B207E1F70E94FA000C9443
:1000A00081020C940000299A85E08A95F1F70000FE
:1000B00029980895CF93C82F662311F0289A01C07C
:1000C0002898549A559A569A579A5F985E985D98D0
:1000D0005C98CC230CF45F9AC6FD5E9AC5FD5D9AD0
:1000E000C4FD5C9A0E9453005F985E985D985C988E
:1000F000C3FD5F9AC2FD5E9AC1FD5D9AC0FD5C9A28
:100100000E9453005C9A5D9A5E9A5F9A87EB9BE02F
:100110000197F1F700C00000CF91089560E00E94C0
:100120005A00089561E00E945A000895611104C0C8
:1001300080580E948E00089580540E948E00089579
:1001400081E00E948E00089561E00E945A000895A7
:10015000CF93DF93EC012196FC018081882329F065
:100160000E94A40089918111FBCFDF91CF91089566
:10017000CF93C82F209A559A219A549A559A569AF5
:10018000579A8FEF99EF0197F1F700C000005D9A41
:100190005C9A0E9453008FE19EE40197F1F700C042
:1001A00000000E9453008FEF90E00197F1F700C02C
:1001B00000000E9453008FEF90E00197F1F700C01C
:1001C00000005C980E9453008FEF90E00197F1F7D8
:1001D00000C0000088E20E948E0088E00E948E002D
:1001E0000E94A00086E00E948E008C2F0E948E004C
:1001F000CF9108958CE00E94B80080E40E948E00A8
:10020000C0E0D1E000E311E089910E949200C017A4
:10021000D107D1F780E80E948E0060E081E00E9463
:10022000960080E391E00E94A80060E08BE00E94CD
:10023000960086E391E00E94A800E1EBF0E0808167
:1002400087608083E0E7F0E080818160808385B50E
:100250008D7F85BD85B5856085BDEEE6F0E080814A
:10026000816080837894FFCF1F920F920FB60F9218
:1002700011242F933F934F935F936F937F938F93AB
:100280009F93AF93BF93EF93FF9380914B0161E0F6
:100290008F5F0E94960080914A010E94A400809185
:1002A0004A018F5F863018F480934A0107C010928C
:1002B0004A0180914B018F5F80934B0180914B01EC
:1002C0008A3050F010924B0161E081E00E9496006C
:1002D00088E391E00E94A800FF91EF91BF91AF9158
:1002E0009F918F917F916F915F914F913F912F914E
:1002F0000F900FBE0F901F9018951F920F920FB680
:100300000F9211242F933F934F935F936F937F939B
:100310008F939F93AF93BF93EF93FF93CF93DF930D
:1003200000D0CDB7DEB780E290E29A8389838091D6
:1003300049018F5F863018F48093490198C010926C
:100340004901809148018F5F8A3018F480934801F9
:1003500041C010924801809147018F5F8C3318F49F
:100360008093470137C01092470160E084E00E940B
:10037000960083E491E00E94A800809146018F5F7F
:100380008C3318F48093460112C01092460160E04D
:1003900081E00E94960083E491E00E94A80060E062
:1003A0008CE00E9496008EE391E00E94A80080916C
:1003B00046014AE0BE016F5F7F4F889FC001112454
:1003C0000E944C0260E08BE00E949600CE010196F4
:1003D0000E94A800809148014AE0BE016F5F7F4FF4
:1003E00090E00E944C0260E087E00E949600CE01FF
:1003F00001960E94A800809147014AE0BE016F5F0C
:100400007F4F90E00E944C02809147018A3048F073
:1004100060E084E00E949600CE0101960E94A80050
:1004200008C060E085E00E949600CE0101960E941F
:10043000A800809146014AE0BE016F5F7F4F90E0C7
:100440000E944C02809146018A3048F060E081E0D1
:100450000E949600CE0101960E94A80008C060E0AC
:1004600082E00E949600CE0101960E94A8000F90A3
:100470000F90DF91CF91FF91EF91BF91AF919F913D
:100480008F917F916F915F914F913F912F910F903D
:100490000FBE0F901F901895BB274A3031F4992357
:1004A00022F4BDE2909581959F4F0C945802BB2792
:1004B000FB015527AA27880F991FAA1FA41710F020
:1004C000A41B83955051B9F7A05DAA3308F0A95D2C
:1004D000A193009779F7B111B1931192CB010C94CC
:1004E0007102DC01FC01672F71917723E1F73297EC
:1004F00004C07C916D9370836291AE17BF07C8F3FF
:060500000895F894FFCFFE
:100506000000000000000000101010101010101065
:1005160018181818181818181C1C1C1C1C1C1C1C35
:100526001E1E1E1E1E1E1E1E1F1F1F1F1F1F1F1FDD
:1005360030303A30302E300020202020202020205D
:060546002020003030000F
:00000001FF
