S012000030322D6C6564732D484D2E7372656319
S11300000C9434000C943E000C943E000C943E007E
S11300100C943E000C943E000C943E000C943E0064
S11300200C943E000C943E000C943E000C943E0054
S11300300C943E000C943E000C943E000C943E0044
S11300400C943E000C943E000C943E000C943E0034
S11300500C943E000C943E000C943E000C943E0024
S11300600C943E000C943E0011241FBECFEFD8E048
S1130070DEBFCDBF0E9440000C948B000C940000A6
S113008087B18F6387B988B188B941E050E0F0E166
S1130090E8E074E062E080E090E09A01082E02C09B
S11300A0220F331F0A94E2F728B92FEF34E3ACE0B0
S11300B021503040A040E1F700C000000196863096
S11300C0910559F7F8B92FEF34E38CE02150304013
S11300D08040E1F700C00000E8B99FEFA4E32CE002
S11300E09150A0402040E1F700C0000078B93FEFF4
S11300F084E39CE0315080409040E1F700C0000070
S113010068B9AFEF24E33CE0A15020403040E1F770
S10D011000C00000C0CFF894FFCF38
S9030000FC
